{
  "contractName": "SAMLETOKEN",
  "abi": [
    {
      "inputs": [],
      "stateMutability": "nonpayable",
      "type": "constructor"
    },
    {
      "anonymous": false,
      "inputs": [
        {
          "indexed": true,
          "internalType": "address",
          "name": "owner",
          "type": "address"
        },
        {
          "indexed": true,
          "internalType": "address",
          "name": "spender",
          "type": "address"
        },
        {
          "indexed": false,
          "internalType": "uint256",
          "name": "value",
          "type": "uint256"
        }
      ],
      "name": "Approval",
      "type": "event"
    },
    {
      "anonymous": false,
      "inputs": [
        {
          "indexed": true,
          "internalType": "address",
          "name": "previousOwner",
          "type": "address"
        },
        {
          "indexed": true,
          "internalType": "address",
          "name": "newOwner",
          "type": "address"
        }
      ],
      "name": "OwnershipTransferred",
      "type": "event"
    },
    {
      "anonymous": false,
      "inputs": [
        {
          "indexed": true,
          "internalType": "address",
          "name": "from",
          "type": "address"
        },
        {
          "indexed": true,
          "internalType": "address",
          "name": "to",
          "type": "address"
        },
        {
          "indexed": false,
          "internalType": "uint256",
          "name": "value",
          "type": "uint256"
        }
      ],
      "name": "Transfer",
      "type": "event"
    },
    {
      "inputs": [],
      "name": "_decimals",
      "outputs": [
        {
          "internalType": "uint8",
          "name": "",
          "type": "uint8"
        }
      ],
      "stateMutability": "view",
      "type": "function"
    },
    {
      "inputs": [],
      "name": "_name",
      "outputs": [
        {
          "internalType": "string",
          "name": "",
          "type": "string"
        }
      ],
      "stateMutability": "view",
      "type": "function"
    },
    {
      "inputs": [],
      "name": "_symbol",
      "outputs": [
        {
          "internalType": "string",
          "name": "",
          "type": "string"
        }
      ],
      "stateMutability": "view",
      "type": "function"
    },
    {
      "inputs": [],
      "name": "_totalSupply",
      "outputs": [
        {
          "internalType": "uint256",
          "name": "",
          "type": "uint256"
        }
      ],
      "stateMutability": "view",
      "type": "function"
    },
    {
      "inputs": [
        {
          "internalType": "address",
          "name": "",
          "type": "address"
        },
        {
          "internalType": "address",
          "name": "",
          "type": "address"
        }
      ],
      "name": "allowed",
      "outputs": [
        {
          "internalType": "uint256",
          "name": "",
          "type": "uint256"
        }
      ],
      "stateMutability": "view",
      "type": "function"
    },
    {
      "inputs": [
        {
          "internalType": "address",
          "name": "",
          "type": "address"
        }
      ],
      "name": "balances",
      "outputs": [
        {
          "internalType": "uint256",
          "name": "",
          "type": "uint256"
        }
      ],
      "stateMutability": "view",
      "type": "function"
    },
    {
      "inputs": [],
      "name": "owner",
      "outputs": [
        {
          "internalType": "address",
          "name": "",
          "type": "address"
        }
      ],
      "stateMutability": "view",
      "type": "function"
    },
    {
      "inputs": [
        {
          "internalType": "address",
          "name": "newOwner",
          "type": "address"
        }
      ],
      "name": "transferOwnership",
      "outputs": [],
      "stateMutability": "nonpayable",
      "type": "function"
    },
    {
      "inputs": [],
      "name": "symbol",
      "outputs": [
        {
          "internalType": "string",
          "name": "",
          "type": "string"
        }
      ],
      "stateMutability": "view",
      "type": "function"
    },
    {
      "inputs": [],
      "name": "decimals",
      "outputs": [
        {
          "internalType": "uint8",
          "name": "",
          "type": "uint8"
        }
      ],
      "stateMutability": "view",
      "type": "function"
    },
    {
      "inputs": [],
      "name": "name",
      "outputs": [
        {
          "internalType": "string",
          "name": "",
          "type": "string"
        }
      ],
      "stateMutability": "view",
      "type": "function"
    },
    {
      "inputs": [],
      "name": "totalSupply",
      "outputs": [
        {
          "internalType": "uint256",
          "name": "",
          "type": "uint256"
        }
      ],
      "stateMutability": "view",
      "type": "function"
    },
    {
      "inputs": [
        {
          "internalType": "address",
          "name": "_to",
          "type": "address"
        },
        {
          "internalType": "uint256",
          "name": "_amount",
          "type": "uint256"
        }
      ],
      "name": "transfer",
      "outputs": [
        {
          "internalType": "bool",
          "name": "success",
          "type": "bool"
        }
      ],
      "stateMutability": "nonpayable",
      "type": "function"
    },
    {
      "inputs": [
        {
          "internalType": "address",
          "name": "_from",
          "type": "address"
        },
        {
          "internalType": "address",
          "name": "_to",
          "type": "address"
        },
        {
          "internalType": "uint256",
          "name": "_amount",
          "type": "uint256"
        }
      ],
      "name": "transferFrom",
      "outputs": [
        {
          "internalType": "bool",
          "name": "success",
          "type": "bool"
        }
      ],
      "stateMutability": "nonpayable",
      "type": "function"
    },
    {
      "inputs": [
        {
          "internalType": "address",
          "name": "_owner",
          "type": "address"
        }
      ],
      "name": "OwnerAccountBalance",
      "outputs": [
        {
          "internalType": "uint256",
          "name": "balance",
          "type": "uint256"
        }
      ],
      "stateMutability": "view",
      "type": "function"
    },
    {
      "inputs": [
        {
          "internalType": "address",
          "name": "_spender",
          "type": "address"
        },
        {
          "internalType": "uint256",
          "name": "_amount",
          "type": "uint256"
        }
      ],
      "name": "approve",
      "outputs": [
        {
          "internalType": "bool",
          "name": "success",
          "type": "bool"
        }
      ],
      "stateMutability": "nonpayable",
      "type": "function"
    },
    {
      "inputs": [
        {
          "internalType": "address",
          "name": "_owner",
          "type": "address"
        },
        {
          "internalType": "address",
          "name": "_spender",
          "type": "address"
        }
      ],
      "name": "allowance",
      "outputs": [
        {
          "internalType": "uint256",
          "name": "remaining",
          "type": "uint256"
        }
      ],
      "stateMutability": "view",
      "type": "function"
    }
  ],
  "bytecode": "0x60806040523480156200001157600080fd5b50336000806101000a81548173ffffffffffffffffffffffffffffffffffffffff021916908373ffffffffffffffffffffffffffffffffffffffff1602179055506040518060400160405280600c81526020017f53414d504c4520544f4b454e0000000000000000000000000000000000000000815250600190805190602001906200009f929190620001d3565b506040518060400160405280600481526020017f53414d500000000000000000000000000000000000000000000000000000000081525060029080519060200190620000ed929190620001d3565b506012600360006101000a81548160ff021916908360ff1602179055506b033b2e3c9fd0803ce8000000600481905550600454600560003373ffffffffffffffffffffffffffffffffffffffff1673ffffffffffffffffffffffffffffffffffffffff168152602001908152602001600020819055503373ffffffffffffffffffffffffffffffffffffffff16600073ffffffffffffffffffffffffffffffffffffffff167fddf252ad1be2c89b69c2b068fc378daa952ba7f163c4a11628f55a4df523b3ef600454604051620001c5919062000294565b60405180910390a362000320565b828054620001e190620002bb565b90600052602060002090601f01602090048101928262000205576000855562000251565b82601f106200022057805160ff191683800117855562000251565b8280016001018555821562000251579182015b828111156200025057825182559160200191906001019062000233565b5b50905062000260919062000264565b5090565b5b808211156200027f57600081600090555060010162000265565b5090565b6200028e81620002b1565b82525050565b6000602082019050620002ab600083018462000283565b92915050565b6000819050919050565b60006002820490506001821680620002d457607f821691505b60208210811415620002eb57620002ea620002f1565b5b50919050565b7f4e487b7100000000000000000000000000000000000000000000000000000000600052602260045260246000fd5b61128d80620003306000396000f3fe608060405234801561001057600080fd5b506004361061010b5760003560e01c80633eaaf86b116100a2578063a9059cbb11610071578063a9059cbb146102d2578063b09f126614610302578063d28d885214610320578063dd62ed3e1461033e578063f2fde38b1461036e5761010b565b80633eaaf86b146102485780635c658165146102665780638da5cb5b1461029657806395d89b41146102b45761010b565b806323b872dd116100de57806323b872dd146101ac57806327e235e3146101dc578063313ce5671461020c57806332424aa31461022a5761010b565b806306fdde0314610110578063095ea7b31461012e57806314bbe56a1461015e57806318160ddd1461018e575b600080fd5b61011861038a565b6040516101259190610fce565b60405180910390f35b61014860048036038101906101439190610ee3565b61041c565b6040516101559190610fb3565b60405180910390f35b61017860048036038101906101739190610e23565b6105a1565b6040516101859190610ff0565b60405180910390f35b6101966105ea565b6040516101a39190610ff0565b60405180910390f35b6101c660048036038101906101c19190610e90565b6105f4565b6040516101d39190610fb3565b60405180910390f35b6101f660048036038101906101f19190610e23565b610728565b6040516102039190610ff0565b60405180910390f35b610214610740565b604051610221919061100b565b60405180910390f35b610232610757565b60405161023f919061100b565b60405180910390f35b61025061076a565b60405161025d9190610ff0565b60405180910390f35b610280600480360381019061027b9190610e50565b610770565b60405161028d9190610ff0565b60405180910390f35b61029e610795565b6040516102ab9190610f98565b60405180910390f35b6102bc6107b9565b6040516102c99190610fce565b60405180910390f35b6102ec60048036038101906102e79190610ee3565b61084b565b6040516102f99190610fb3565b60405180910390f35b61030a610862565b6040516103179190610fce565b60405180910390f35b6103286108f0565b6040516103359190610fce565b60405180910390f35b61035860048036038101906103539190610e50565b61097e565b6040516103659190610ff0565b60405180910390f35b61038860048036038101906103839190610e23565b610a05565b005b60606001805461039990611154565b80601f01602080910402602001604051908101604052809291908181526020018280546103c590611154565b80156104125780601f106103e757610100808354040283529160200191610412565b820191906000526020600020905b8154815290600101906020018083116103f557829003601f168201915b5050505050905090565b6000808214806104a857506000600660003373ffffffffffffffffffffffffffffffffffffffff1673ffffffffffffffffffffffffffffffffffffffff16815260200190815260200160002060008573ffffffffffffffffffffffffffffffffffffffff1673ffffffffffffffffffffffffffffffffffffffff16815260200190815260200160002054145b6104b157600080fd5b81600660003373ffffffffffffffffffffffffffffffffffffffff1673ffffffffffffffffffffffffffffffffffffffff16815260200190815260200160002060008573ffffffffffffffffffffffffffffffffffffffff1673ffffffffffffffffffffffffffffffffffffffff168152602001908152602001600020819055508273ffffffffffffffffffffffffffffffffffffffff163373ffffffffffffffffffffffffffffffffffffffff167f8c5be1e5ebec7d5bd14f71427d1e84f3dd0314c0f7b2291e5b200ac8c7c3b9258460405161058f9190610ff0565b60405180910390a36001905092915050565b6000600560008373ffffffffffffffffffffffffffffffffffffffff1673ffffffffffffffffffffffffffffffffffffffff168152602001908152602001600020549050919050565b6000600454905090565b600081600660008673ffffffffffffffffffffffffffffffffffffffff1673ffffffffffffffffffffffffffffffffffffffff16815260200190815260200160002060003373ffffffffffffffffffffffffffffffffffffffff1673ffffffffffffffffffffffffffffffffffffffff16815260200190815260200160002054101561067f57600080fd5b81600660008673ffffffffffffffffffffffffffffffffffffffff1673ffffffffffffffffffffffffffffffffffffffff16815260200190815260200160002060003373ffffffffffffffffffffffffffffffffffffffff1673ffffffffffffffffffffffffffffffffffffffff168152602001908152602001600020600082825461070b9190611098565b9250508190555061071d848484610b54565b600190509392505050565b60056020528060005260406000206000915090505481565b6000600360009054906101000a900460ff16905090565b600360009054906101000a900460ff1681565b60045481565b6006602052816000526040600020602052806000526040600020600091509150505481565b60008054906101000a900473ffffffffffffffffffffffffffffffffffffffff1681565b6060600280546107c890611154565b80601f01602080910402602001604051908101604052809291908181526020018280546107f490611154565b80156108415780601f1061081657610100808354040283529160200191610841565b820191906000526020600020905b81548152906001019060200180831161082457829003601f168201915b5050505050905090565b6000610858338484610b54565b6001905092915050565b6002805461086f90611154565b80601f016020809104026020016040519081016040528092919081815260200182805461089b90611154565b80156108e85780601f106108bd576101008083540402835291602001916108e8565b820191906000526020600020905b8154815290600101906020018083116108cb57829003601f168201915b505050505081565b600180546108fd90611154565b80601f016020809104026020016040519081016040528092919081815260200182805461092990611154565b80156109765780601f1061094b57610100808354040283529160200191610976565b820191906000526020600020905b81548152906001019060200180831161095957829003601f168201915b505050505081565b6000600660008473ffffffffffffffffffffffffffffffffffffffff1673ffffffffffffffffffffffffffffffffffffffff16815260200190815260200160002060008373ffffffffffffffffffffffffffffffffffffffff1673ffffffffffffffffffffffffffffffffffffffff16815260200190815260200160002054905092915050565b60008054906101000a900473ffffffffffffffffffffffffffffffffffffffff1673ffffffffffffffffffffffffffffffffffffffff163373ffffffffffffffffffffffffffffffffffffffff1614610a5d57600080fd5b600073ffffffffffffffffffffffffffffffffffffffff168173ffffffffffffffffffffffffffffffffffffffff161415610a9757600080fd5b8073ffffffffffffffffffffffffffffffffffffffff1660008054906101000a900473ffffffffffffffffffffffffffffffffffffffff1673ffffffffffffffffffffffffffffffffffffffff167f8be0079c531659141344cd1fd0a4f28419497f9722a3daafe3b4186f6b6457e060405160405180910390a3806000806101000a81548173ffffffffffffffffffffffffffffffffffffffff021916908373ffffffffffffffffffffffffffffffffffffffff16021790555050565b600073ffffffffffffffffffffffffffffffffffffffff168273ffffffffffffffffffffffffffffffffffffffff1614158015610bbd57503073ffffffffffffffffffffffffffffffffffffffff168273ffffffffffffffffffffffffffffffffffffffff1614155b610bc657600080fd5b600560008473ffffffffffffffffffffffffffffffffffffffff1673ffffffffffffffffffffffffffffffffffffffff16815260200190815260200160002054811115610c1257600080fd5b610c6481600560008673ffffffffffffffffffffffffffffffffffffffff1673ffffffffffffffffffffffffffffffffffffffff16815260200190815260200160002054610da690919063ffffffff16565b600560008573ffffffffffffffffffffffffffffffffffffffff1673ffffffffffffffffffffffffffffffffffffffff16815260200190815260200160002081905550610cf981600560008573ffffffffffffffffffffffffffffffffffffffff1673ffffffffffffffffffffffffffffffffffffffff16815260200190815260200160002054610dcd90919063ffffffff16565b600560008473ffffffffffffffffffffffffffffffffffffffff1673ffffffffffffffffffffffffffffffffffffffff168152602001908152602001600020819055508173ffffffffffffffffffffffffffffffffffffffff168373ffffffffffffffffffffffffffffffffffffffff167fddf252ad1be2c89b69c2b068fc378daa952ba7f163c4a11628f55a4df523b3ef83604051610d999190610ff0565b60405180910390a3505050565b600082821115610db957610db8611186565b5b8183610dc59190611098565b905092915050565b6000808284610ddc9190611042565b905083811015610def57610dee611186565b5b8091505092915050565b600081359050610e0881611229565b92915050565b600081359050610e1d81611240565b92915050565b600060208284031215610e3957610e38611213565b5b6000610e4784828501610df9565b91505092915050565b60008060408385031215610e6757610e66611213565b5b6000610e7585828601610df9565b9250506020610e8685828601610df9565b9150509250929050565b600080600060608486031215610ea957610ea8611213565b5b6000610eb786828701610df9565b9350506020610ec886828701610df9565b9250506040610ed986828701610e0e565b9150509250925092565b60008060408385031215610efa57610ef9611213565b5b6000610f0885828601610df9565b9250506020610f1985828601610e0e565b9150509250929050565b610f2c816110cc565b82525050565b610f3b816110de565b82525050565b6000610f4c82611026565b610f568185611031565b9350610f66818560208601611121565b610f6f81611218565b840191505092915050565b610f838161110a565b82525050565b610f9281611114565b82525050565b6000602082019050610fad6000830184610f23565b92915050565b6000602082019050610fc86000830184610f32565b92915050565b60006020820190508181036000830152610fe88184610f41565b905092915050565b60006020820190506110056000830184610f7a565b92915050565b60006020820190506110206000830184610f89565b92915050565b600081519050919050565b600082825260208201905092915050565b600061104d8261110a565b91506110588361110a565b9250827fffffffffffffffffffffffffffffffffffffffffffffffffffffffffffffffff0382111561108d5761108c6111b5565b5b828201905092915050565b60006110a38261110a565b91506110ae8361110a565b9250828210156110c1576110c06111b5565b5b828203905092915050565b60006110d7826110ea565b9050919050565b60008115159050919050565b600073ffffffffffffffffffffffffffffffffffffffff82169050919050565b6000819050919050565b600060ff82169050919050565b60005b8381101561113f578082015181840152602081019050611124565b8381111561114e576000848401525b50505050565b6000600282049050600182168061116c57607f821691505b602082108114156111805761117f6111e4565b5b50919050565b7f4e487b7100000000000000000000000000000000000000000000000000000000600052600160045260246000fd5b7f4e487b7100000000000000000000000000000000000000000000000000000000600052601160045260246000fd5b7f4e487b7100000000000000000000000000000000000000000000000000000000600052602260045260246000fd5b600080fd5b6000601f19601f8301169050919050565b611232816110cc565b811461123d57600080fd5b50565b6112498161110a565b811461125457600080fd5b5056fea2646970667358221220dcc6836192c52b39cee200ff0ed2d81acfb1dcfd8bba61fb1eb269464ae9d61e64736f6c63430008070033",
  "immutableReferences": {},
  "source": "// SPDX-License-Identifier: GPL-3.0\n\npragma solidity ^0.8.7;\n\n// ----------------------------------------------------------------------------\n// \n//\n// Deployed to : msg.sender\n// Symbol      : SAM\n// Name        : SAMPLE TOKEN\n// Total supply: 1,000,000,000\n// Decimals    : 18\n\n// ----------------------------------------------------------------------------\n// Safe maths\n// ----------------------------------------------------------------------------\ncontract Ownable {\n    address public owner;\n\n\n    event OwnershipTransferred(address indexed previousOwner, address indexed newOwner);\n\n\n    /**\n     * @dev The Ownable constructor sets the original `owner` of the contract to the sender\n     * account.\n     */\n   constructor() public {\n        owner = msg.sender;\n    }\n\n    /**\n     * @dev Throws if called by any account other than the owner.\n     */\n    modifier onlyOwner() {\n        require(msg.sender == owner);\n        _;\n    } \n\n    /**\n     * @dev Allows the current owner to transfer control of the contract to a newOwner.\n     * @param newOwner The address to transfer ownership to.\n     */\n    function transferOwnership(address newOwner) public onlyOwner {\n        require(newOwner != address(0));\n        emit OwnershipTransferred(owner, newOwner);\n        owner = newOwner;\n    }\n\n}\n\n/**\n * @title SafeMath\n * @dev Math operations with safety checks that throw on error\n */\nlibrary SafeMath {\n\n  /**\n  * @dev Multiplies two numbers, throws on overflow.\n  */\n  function mul(uint256 a, uint256 b) internal pure returns (uint256) {\n    if (a == 0) {\n      return 0;\n    }\n    uint256 c = a * b;\n    assert(c / a == b);\n    return c;\n  }\n\n  /**\n  * @dev Integer division of two numbers, truncating the quotient.\n  */\n  function div(uint256 a, uint256 b) internal pure returns (uint256) {\n    // assert(b > 0); // Solidity automatically throws when dividing by 0\n    uint256 c = a / b;\n    // assert(a == b * c + a % b); // There is no case in which this doesn't hold\n    return c;\n  }\n\n  /**\n  * @dev Subtracts two numbers, throws on overflow (i.e. if subtrahend is greater than minuend).\n  */\n  function sub(uint256 a, uint256 b) internal pure returns (uint256) {\n    assert(b <= a);\n    return a - b;\n  }\n\n  /**\n  * @dev Adds two numbers, throws on overflow.\n  */\n  function add(uint256 a, uint256 b) internal pure returns (uint256) {\n    uint256 c = a + b;\n    assert(c >= a);\n    return c;\n  }\n}\n\ninterface SAMPLETOKENUX {\n    function authenticate(address _sender, uint _value, uint _challenge, uint _partnerId) external;\n}\n\ninterface tokenRecipient {\n    function receiveApproval(address _from, uint256 _value, address _token, bytes calldata _extraData) external;\n}\n\ninterface CRC20 {\n  /**\n   * @dev Returns the amount of tokens in existence.\n   */\n  function totalSupply() external view returns (uint256);\n\n  /**\n   * @dev Returns the token decimals.\n   */\n  function decimals() external view returns (uint8);\n\n  /**\n   * @dev Returns the token symbol.\n   */\n  function symbol() external view returns (string memory);\n\n  /**\n  * @dev Returns the token name.\n  */\n  function name() external view returns (string memory);\n\n  /**\n   * @dev Returns the amount of tokens owned by `account`.\n   */\n  function OwnerAccountBalance(address account) external view returns (uint256);\n\n  /**\n   * @dev Moves `amount` tokens from the caller's account to `recipient`.\n   * Returns a boolean value indicating whether the operation succeeded.\n   * Emits a {Transfer} event.\n   */\n  function transfer(address recipient, uint256 amount) external returns (bool);\n\n  /**\n   * @dev Returns the remaining number of tokens that `spender` will be\n   * allowed to spend on behalf of `owner` through {transferFrom}. This is\n   * zero by default.\n   *\n   * This value changes when {approve} or {transferFrom} are called.\n   */\n  function allowance(address _owner, address spender) external view returns (uint256);\n\n  /**\n   * @dev Sets `amount` as the allowance of `spender` over the caller's tokens.\n   *\n   * Returns a boolean value indicating whether the operation succeeded.\n   * Emits an {Approval} event.\n   */\n  function approve(address spender, uint256 amount) external returns (bool);\n\n  /**\n   * @dev Moves `amount` tokens from `sender` to `recipient` using the\n   * allowance mechanism. `amount` is then deducted from the caller's\n   * allowance.\n   *\n   * Returns a boolean value indicating whether the operation succeeded.\n   *\n   * Emits a {Transfer} event.\n   */\n  function transferFrom(address sender, address recipient, uint256 amount) external returns (bool);\n\n  /**\n   * @dev Emitted when `value` tokens are moved from one account (`from`) to\n   * another (`to`).\n   *\n   * Note that `value` may be zero.\n   */\n  event Transfer(address indexed from, address indexed to, uint256 value);\n\n  /**\n   * @dev Emitted when the allowance of a `spender` for an `owner` is set by\n   * a call to {approve}. `value` is the new allowance.\n   */\n  event Approval(address indexed owner, address indexed spender, uint256 value);\n}\n\n\ncontract SAMLETOKEN is Ownable, CRC20 {\n   using SafeMath for uint256;\n\n    string public _name;\n    string public _symbol;\n    uint8 public _decimals;  // Number of decimals of the smallest unit\n    uint public _totalSupply;\n\n    mapping (address => uint256) public balances;\n    // `allowed` tracks any extra transfer rights as in all GIGX tokens\n    mapping (address => mapping (address => uint256)) public allowed;\n\n constructor() public{\n        _name='SAMPLE TOKEN';\n        _symbol='SAMP';\n        _decimals=18;\n       _totalSupply = (1000000000 * 10**18);\n        // Give the creator all initial tokens\n        balances[msg.sender] = _totalSupply;\n        emit Transfer(address(0), msg.sender, _totalSupply);\n    }\n    \n  // Returns Token Symbol\n  function symbol() public override view returns (string memory) {\n    return _symbol;\n  }\n  \n  // Returns Token Decimals\n  function decimals() external view override returns (uint8) {\n    return _decimals;\n  }\n  \n // Returns Token Name\n  function name() public override view returns (string memory) {\n    return _name;\n  }\n\n  // Returns Token totalSupply\n   function totalSupply() public view override returns (uint) {\n        return _totalSupply;\n  }\n    \n   function transfer(address _to, uint256 _amount) public override  returns (bool success) {\n        doTransfer(msg.sender, _to, _amount);\n        return true;\n  }\n\n  function transferFrom(address _from, address _to, uint256 _amount\n    ) public override returns (bool success) {\n        // The standard ERC 20 transferFrom functionality\n        require(allowed[_from][msg.sender] >= _amount);\n        allowed[_from][msg.sender] -= _amount;\n        doTransfer(_from, _to, _amount);\n        return true;\n    }\n    \n    function doTransfer(address _from, address _to, uint _amount\n    ) internal {\n        // Do not allow transfer to 0x0 or the token contract itself\n        require((_to != address(0)) && (_to != address(this)));\n        require(_amount <= balances[_from]);\n        balances[_from] = balances[_from].sub(_amount);\n        balances[_to] = balances[_to].add(_amount);\n        emit Transfer(_from, _to, _amount);\n    }\n\n  function OwnerAccountBalance(address _owner) public override view returns (uint256 balance) {\n        return balances[_owner];\n    }\n\n   // Allows an address to approve another address to spend its tokens\n    function approve(address _spender, uint256 _amount) public override returns (bool success) {\n        // To change the approve amount you first have to reduce the addresses`\n        require((_amount == 0) || (allowed[msg.sender][_spender] == 0));\n        allowed[msg.sender][_spender] = _amount;\n        emit Approval(msg.sender, _spender, _amount);\n        return true;\n    }\n    \n\n    //returns the allowance an address has granted a spender\n    function allowance(address _owner, address _spender\n    ) public view override returns (uint256 remaining) {\n        return allowed[_owner][_spender];\n    }\n    \n}\n",
  "sourcePath": "/Users/macintoshhd/Documents/Personal/SCDeployer/contracts/SampleToken.sol",
  "compiler": {
    "name": "solc",
    "version": "0.8.7+commit.e28d00a7.Emscripten.clang"
  },
  "schemaVersion": "3.4.3",
  "updatedAt": "2021-09-08T02:41:02.107Z",
  "devdoc": {
    "kind": "dev",
    "methods": {
      "decimals()": {
        "details": "Returns the token decimals."
      },
      "name()": {
        "details": "Returns the token name."
      },
      "symbol()": {
        "details": "Returns the token symbol."
      },
      "totalSupply()": {
        "details": "Returns the amount of tokens in existence."
      },
      "transferOwnership(address)": {
        "details": "Allows the current owner to transfer control of the contract to a newOwner.",
        "params": {
          "newOwner": "The address to transfer ownership to."
        }
      }
    },
    "version": 1
  },
  "userdoc": {
    "kind": "user",
    "methods": {},
    "version": 1
  }
}